{
  "contractName": "IPLDPlayListHash",
  "abi": [
    {
      "constant": false,
      "inputs": [],
      "name": "renounceOwnership",
      "outputs": [],
      "payable": false,
      "stateMutability": "nonpayable",
      "type": "function",
      "signature": "0x715018a6"
    },
    {
      "constant": true,
      "inputs": [],
      "name": "owner",
      "outputs": [
        {
          "name": "",
          "type": "address"
        }
      ],
      "payable": false,
      "stateMutability": "view",
      "type": "function",
      "signature": "0x8da5cb5b"
    },
    {
      "constant": true,
      "inputs": [],
      "name": "isOwner",
      "outputs": [
        {
          "name": "",
          "type": "bool"
        }
      ],
      "payable": false,
      "stateMutability": "view",
      "type": "function",
      "signature": "0x8f32d59b"
    },
    {
      "constant": true,
      "inputs": [],
      "name": "playlistHash",
      "outputs": [
        {
          "name": "",
          "type": "string"
        }
      ],
      "payable": false,
      "stateMutability": "view",
      "type": "function",
      "signature": "0x93bcef9e"
    },
    {
      "constant": false,
      "inputs": [
        {
          "name": "newOwner",
          "type": "address"
        }
      ],
      "name": "transferOwnership",
      "outputs": [],
      "payable": false,
      "stateMutability": "nonpayable",
      "type": "function",
      "signature": "0xf2fde38b"
    },
    {
      "anonymous": false,
      "inputs": [
        {
          "indexed": false,
          "name": "newHash",
          "type": "string"
        }
      ],
      "name": "PlaylistChanged",
      "type": "event",
      "signature": "0x285c9e87e5140834b8ed178b90b10b89c3a81c01bc7e8e4ed219dc395c98e029"
    },
    {
      "anonymous": false,
      "inputs": [
        {
          "indexed": true,
          "name": "previousOwner",
          "type": "address"
        },
        {
          "indexed": true,
          "name": "newOwner",
          "type": "address"
        }
      ],
      "name": "OwnershipTransferred",
      "type": "event",
      "signature": "0x8be0079c531659141344cd1fd0a4f28419497f9722a3daafe3b4186f6b6457e0"
    },
    {
      "constant": false,
      "inputs": [
        {
          "name": "newHash",
          "type": "string"
        }
      ],
      "name": "changeHash",
      "outputs": [],
      "payable": false,
      "stateMutability": "nonpayable",
      "type": "function",
      "signature": "0x1ddf7359"
    }
  ],
  "bytecode": "0x6080604081905260008054600160a060020a0319163317808255600160a060020a0316917f8be0079c531659141344cd1fd0a4f28419497f9722a3daafe3b4186f6b6457e0908290a3610592806100576000396000f3fe608060405260043610610071577c010000000000000000000000000000000000000000000000000000000060003504631ddf73598114610076578063715018a61461012b5780638da5cb5b146101405780638f32d59b1461017157806393bcef9e1461019a578063f2fde38b14610224575b600080fd5b34801561008257600080fd5b506101296004803603602081101561009957600080fd5b8101906020810181356401000000008111156100b457600080fd5b8201836020820111156100c657600080fd5b803590602001918460018302840111640100000000831117156100e857600080fd5b91908080601f016020809104026020016040519081016040528093929190818152602001838380828437600092019190915250929550610257945050505050565b005b34801561013757600080fd5b5061012961031a565b34801561014c57600080fd5b50610155610384565b60408051600160a060020a039092168252519081900360200190f35b34801561017d57600080fd5b50610186610394565b604080519115158252519081900360200190f35b3480156101a657600080fd5b506101af6103a5565b6040805160208082528351818301528351919283929083019185019080838360005b838110156101e95781810151838201526020016101d1565b50505050905090810190601f1680156102165780820380516001836020036101000a031916815260200191505b509250505060405180910390f35b34801561023057600080fd5b506101296004803603602081101561024757600080fd5b5035600160a060020a0316610432565b61025f610394565b151561026a57600080fd5b805161027d9060019060208401906104ce565b507f285c9e87e5140834b8ed178b90b10b89c3a81c01bc7e8e4ed219dc395c98e029816040518080602001828103825283818151815260200191508051906020019080838360005b838110156102dd5781810151838201526020016102c5565b50505050905090810190601f16801561030a5780820380516001836020036101000a031916815260200191505b509250505060405180910390a150565b610322610394565b151561032d57600080fd5b60008054604051600160a060020a03909116907f8be0079c531659141344cd1fd0a4f28419497f9722a3daafe3b4186f6b6457e0908390a36000805473ffffffffffffffffffffffffffffffffffffffff19169055565b600054600160a060020a03165b90565b600054600160a060020a0316331490565b60018054604080516020600284861615610100026000190190941693909304601f8101849004840282018401909252818152929183018282801561042a5780601f106103ff5761010080835404028352916020019161042a565b820191906000526020600020905b81548152906001019060200180831161040d57829003601f168201915b505050505081565b61043a610394565b151561044557600080fd5b61044e81610451565b50565b600160a060020a038116151561046657600080fd5b60008054604051600160a060020a03808516939216917f8be0079c531659141344cd1fd0a4f28419497f9722a3daafe3b4186f6b6457e091a36000805473ffffffffffffffffffffffffffffffffffffffff1916600160a060020a0392909216919091179055565b828054600181600116156101000203166002900490600052602060002090601f016020900481019282601f1061050f57805160ff191683800117855561053c565b8280016001018555821561053c579182015b8281111561053c578251825591602001919060010190610521565b5061054892915061054c565b5090565b61039191905b80821115610548576000815560010161055256fea165627a7a723058209675c766ec25c20a131f1c9a31fc1d65785ce7ec7427a385577de54c0e94f8fd0029",
  "source": "pragma solidity >=0.4.21 <0.6.0;\n\nimport \"openzeppelin-solidity/contracts/ownership/Ownable.sol\";\n\n/**\n * @title IPLDHashPlaylist\n * @dev A Contract to set the play list played at chibacity-radio.\n */\n\ncontract IPLDPlayListHash is Ownable {\n  string public playlistHash;\n\n  event PlaylistChanged(string newHash);\n\n  function changeHash(string memory newHash) public onlyOwner {\n    playlistHash = newHash;\n    emit PlaylistChanged(newHash);\n  }\n}\n",
  "sourcePath": "/home/codemachine/chibacity-contracts/contracts/IPLDPlayListHash.sol",
  "compiler": {
    "name": "solc",
    "version": "0.5.1+commit.c8a2cb62.Emscripten.clang"
  },
  "schemaVersion": "3.0.0",
  "updatedAt": "2019-01-31T22:19:25.489Z",
  "devdoc": {
    "details": "A Contract to set the play list played at chibacity-radio.",
    "methods": {
      "isOwner()": {
        "return": "true if `msg.sender` is the owner of the contract."
      },
      "owner()": {
        "return": "the address of the owner."
      },
      "renounceOwnership()": {
        "details": "Allows the current owner to relinquish control of the contract."
      },
      "transferOwnership(address)": {
        "details": "Allows the current owner to transfer control of the contract to a newOwner.",
        "params": {
          "newOwner": "The address to transfer ownership to."
        }
      }
    },
    "title": "IPLDHashPlaylist"
  },
  "userdoc": {
    "methods": {
      "renounceOwnership()": {
        "notice": "Renouncing to ownership will leave the contract without an owner. It will not be possible to call the functions with the `onlyOwner` modifier anymore."
      }
    }
  }
}